{
  "_format": "hh-sol-artifact-1",
  "contractName": "ConfidentialAuction",
  "sourceName": "contracts/ConfidentialAuction.sol",
  "abi": [
    {
      "inputs": [
        {
          "internalType": "address",
          "name": "beneficiary_",
          "type": "address"
        },
        {
          "internalType": "uint256",
          "name": "durationSeconds",
          "type": "uint256"
        }
      ],
      "stateMutability": "nonpayable",
      "type": "constructor"
    },
    {
      "inputs": [
        {
          "internalType": "bytes32",
          "name": "handle",
          "type": "bytes32"
        },
        {
          "internalType": "address",
          "name": "sender",
          "type": "address"
        }
      ],
      "name": "SenderNotAllowedToUseHandle",
      "type": "error"
    },
    {
      "inputs": [],
      "name": "ZamaProtocolUnsupported",
      "type": "error"
    },
    {
      "anonymous": false,
      "inputs": [
        {
          "indexed": true,
          "internalType": "address",
          "name": "winner",
          "type": "address"
        }
      ],
      "name": "AuctionFinalized",
      "type": "event"
    },
    {
      "anonymous": false,
      "inputs": [
        {
          "indexed": true,
          "internalType": "address",
          "name": "bidder",
          "type": "address"
        }
      ],
      "name": "BidPlaced",
      "type": "event"
    },
    {
      "inputs": [],
      "name": "beneficiary",
      "outputs": [
        {
          "internalType": "address",
          "name": "",
          "type": "address"
        }
      ],
      "stateMutability": "view",
      "type": "function"
    },
    {
      "inputs": [
        {
          "internalType": "externalEuint64",
          "name": "encBid",
          "type": "bytes32"
        },
        {
          "internalType": "bytes",
          "name": "inputProof",
          "type": "bytes"
        }
      ],
      "name": "bid",
      "outputs": [],
      "stateMutability": "nonpayable",
      "type": "function"
    },
    {
      "inputs": [],
      "name": "biddingDeadline",
      "outputs": [
        {
          "internalType": "uint256",
          "name": "",
          "type": "uint256"
        }
      ],
      "stateMutability": "view",
      "type": "function"
    },
    {
      "inputs": [],
      "name": "confidentialProtocolId",
      "outputs": [
        {
          "internalType": "uint256",
          "name": "",
          "type": "uint256"
        }
      ],
      "stateMutability": "view",
      "type": "function"
    },
    {
      "inputs": [],
      "name": "finalizeAuction",
      "outputs": [],
      "stateMutability": "nonpayable",
      "type": "function"
    },
    {
      "inputs": [],
      "name": "finalized",
      "outputs": [
        {
          "internalType": "bool",
          "name": "",
          "type": "bool"
        }
      ],
      "stateMutability": "view",
      "type": "function"
    },
    {
      "inputs": [],
      "name": "getHighestBid",
      "outputs": [
        {
          "internalType": "euint64",
          "name": "",
          "type": "bytes32"
        }
      ],
      "stateMutability": "view",
      "type": "function"
    },
    {
      "inputs": [],
      "name": "getMyBid",
      "outputs": [
        {
          "internalType": "euint64",
          "name": "",
          "type": "bytes32"
        }
      ],
      "stateMutability": "view",
      "type": "function"
    },
    {
      "inputs": [],
      "name": "highestBidder",
      "outputs": [
        {
          "internalType": "address",
          "name": "",
          "type": "address"
        }
      ],
      "stateMutability": "view",
      "type": "function"
    },
    {
      "inputs": [],
      "name": "isActive",
      "outputs": [
        {
          "internalType": "bool",
          "name": "",
          "type": "bool"
        }
      ],
      "stateMutability": "view",
      "type": "function"
    }
  ],
  "bytecode": "0x60c060405234801561000f575f5ffd5b5060405161133a38038061133a83398101604081905261002e916103eb565b6100bc6100396100f4565b80515f51602061131a5f395f51905f5280546001600160a01b03199081166001600160a01b039384161790915560208301515f5160206112fa5f395f51905f528054831691841691909117905560408301517f9e7b61f58c47dc699ac88507c4f5bb9f121c03808c5676a8078fe583e46497028054909216921691909117905550565b6001600160a01b0382166080526100d38142610422565b60a0526100df5f6102a3565b5f8190556100ec906102be565b505050610488565b604080516060810182525f80825260208201819052918101919091524660010361018d575060408051606080820183525f8083526020808401829052928401528251908101835273ca2e8f1f656cd25c01f05d0b243ab1ecd4a8ffb6815273d82385dada1ae3e969447f20a3164f6213100e75918101919091527377627828a55156b04ac0dc0eb30467f1a552bb039181019190915290565b4662aa36a70361020c575060408051606080820183525f8083526020808401829052928401528251908101835273f0ffdc93b7e186bc2f8cb3daa75d86d1930a433d81527392c920834ec8941d2c77d188936e1f7a6f49c1279181019190915273be0e383937d564d7ff0bc3b46c51f0bf8d5c311a9181019190915290565b46617a690361028a575060408051606080820183525f808352602080840182905292840152825190810183527350157cffd6bbfa2dece204a89ec419c23ef5755d815273e3a9105a3a932253a70f126eb1e3b589c643dd249181019190915273be0e383937d564d7ff0bc3b46c51f0bf8d5c311a9181019190915290565b6040516373cac13b60e01b815260040160405180910390fd5b5f6102b86001600160401b03831660056102de565b92915050565b5f816102d0576102cd5f6102a3565b91505b6102da8230610375565b5090565b5f5160206112fa5f395f51905f5254604051639cd07acb60e01b81525f915f51602061131a5f395f51905f52916001600160a01b0390911690639cd07acb9061032d9087908790600401610441565b6020604051808303815f875af1158015610349573d5f5f3e3d5ffd5b505050506040513d601f19601f8201168201806040525081019061036d9190610471565b949350505050565b5f5f51602061131a5f395f51905f528054604051635ca4b5b160e11b8152600481018690526001600160a01b03858116602483015292935091169063b9496b62906044015f604051808303815f87803b1580156103d0575f5ffd5b505af11580156103e2573d5f5f3e3d5ffd5b50505050505050565b5f5f604083850312156103fc575f5ffd5b82516001600160a01b0381168114610412575f5ffd5b6020939093015192949293505050565b808201808211156102b857634e487b7160e01b5f52601160045260245ffd5b828152604081016054831061046457634e487b7160e01b5f52602160045260245ffd5b8260208301529392505050565b5f60208284031215610481575f5ffd5b5051919050565b60805160a051610e3d6104bd5f395f818160c2015281816101b8015281816101f6015261042901525f6101290152610e3d5ff3fe608060405234801561000f575f5ffd5b50600436106100b9575f3560e01c806384ddc67f1161007257806391f901571161005857806391f9015714610186578063b3f05b9714610199578063f77282ab146101ad575f5ffd5b806384ddc67f1461016a5780638927b0301461017e575f5ffd5b806338263e82116100a257806338263e821461010f57806338af3eed146101245780634979440a14610163575f5ffd5b80630fd388d3146100bd57806322f3e2d4146100f7575b5f5ffd5b6100e47f000000000000000000000000000000000000000000000000000000000000000081565b6040519081526020015b60405180910390f35b6100ff6101b5565b60405190151581526020016100ee565b61012261011d366004610c88565b6101f4565b005b61014b7f000000000000000000000000000000000000000000000000000000000000000081565b6040516001600160a01b0390911681526020016100ee565b5f546100e4565b335f908152600260205260409020546100e4565b6100e461041e565b60015461014b906001600160a01b031681565b6001546100ff90600160a01b900460ff1681565b610122610427565b5f7f0000000000000000000000000000000000000000000000000000000000000000421080156101ef5750600154600160a01b900460ff16155b905090565b7f000000000000000000000000000000000000000000000000000000000000000042106102685760405162461bcd60e51b815260206004820152600d60248201527f41756374696f6e20656e6465640000000000000000000000000000000000000060448201526064015b60405180910390fd5b600154600160a01b900460ff16156102c25760405162461bcd60e51b815260206004820152601160248201527f416c72656164792066696e616c697a6564000000000000000000000000000000604482015260640161025f565b5f6103028484848080601f0160208091040260200160405190810160405280939291908181526020018383808284375f9201919091525061056492505050565b335f908152600260205260409020549091501561034657335f9081526002602052604090205461033290826105d3565b335f90815260026020526040902055610358565b335f9081526002602052604090208190555b335f9081526002602052604090205461037090610601565b50335f8181526002602052604090205461038991610621565b505f610396825f54610644565b90506103a481835f54610672565b5f8190556103b190610601565b506001546001600160a01b03166103ed57600180547fffffffffffffffffffffffff000000000000000000000000000000000000000016331790555b60405133907fe677a6b9a16a696674f50d2c98a1ce8c5cb51d6b48a0223412c512bbc93664d5905f90a25050505050565b5f6101ef6106bb565b7f00000000000000000000000000000000000000000000000000000000000000004210156104975760405162461bcd60e51b815260206004820152601260248201527f41756374696f6e207374696c6c206c6976650000000000000000000000000000604482015260640161025f565b600154600160a01b900460ff16156104f15760405162461bcd60e51b815260206004820152601160248201527f416c72656164792066696e616c697a6564000000000000000000000000000000604482015260640161025f565b600180547fffffffffffffffffffffff00ffffffffffffffffffffffffffffffffffffffff16600160a01b1790555f5461052a906106ef565b506001546040516001600160a01b03909116907f36463e1979d0fe214994ac0a684c0f3cdc11a11e210a0b35c37ad749d07dc9f3905f90a2565b5f81515f14610580576105798383600561070a565b90506105cd565b825f81900361059a576105925f610817565b9150506105cd565b6105a4813361082d565b6105ca57604051630276b5d960e01b81526004810182905233602482015260440161025f565b90505b92915050565b5f826105e5576105e25f610817565b92505b816105f6576105f35f610817565b91505b6105ca83835f6108b9565b5f81610613576106105f610817565b91505b61061d82306109a1565b5090565b5f82610633576106305f610817565b92505b61063d83836109a1565b5090919050565b5f82610656576106535f610817565b92505b81610667576106645f610817565b91505b6105ca83835f610a15565b5f83610684576106815f610ab7565b93505b82610695576106925f610817565b92505b816106a6576106a35f610817565b91505b6106b1848484610ad2565b90505b9392505050565b5f466001036106ca5750600190565b4662aa36a7036106db575061271190565b46617a69036106ea57505f1990565b505f90565b5f81610701576106fe5f610817565b91505b61061d82610b68565b7f9e7b61f58c47dc699ac88507c4f5bb9f121c03808c5676a8078fe583e46497015460405163045fc19560e11b81525f915f516020610e115f395f51905f52916001600160a01b03909116906308bf832a90610770908890339089908990600401610d1f565b6020604051808303815f875af115801561078c573d5f5f3e3d5ffd5b505050506040513d601f19601f820116820180604052508101906107b09190610d70565b8154604051630f8e573b60e21b8152600481018390523360248201529193506001600160a01b031690633e395cec906044015f604051808303815f87803b1580156107f9575f5ffd5b505af115801561080b573d5f5f3e3d5ffd5b50505050509392505050565b5f6105cd8267ffffffffffffffff166005610be6565b5f805f516020610e115f395f51905f5280546040516382027b6d60e01b8152600481018790526001600160a01b0386811660248301529293509116906382027b6d90604401602060405180830381865afa15801561088d573d5f5f3e3d5ffd5b505050506040513d601f19601f820116820180604052508101906108b19190610d87565b949350505050565b5f5f82156108cc5750600160f81b6108cf565b505f5b7f9e7b61f58c47dc699ac88507c4f5bb9f121c03808c5676a8078fe583e464970154604051630d8c635960e21b815260048101879052602481018690527fff00000000000000000000000000000000000000000000000000000000000000831660448201525f516020610e115f395f51905f52916001600160a01b0316906336318d64906064015b6020604051808303815f875af1158015610973573d5f5f3e3d5ffd5b505050506040513d601f19601f820116820180604052508101906109979190610d70565b9695505050505050565b5f516020610e115f395f51905f528054604051635ca4b5b160e11b8152600481018590526001600160a01b0384811660248301529091169063b9496b62906044015b5f604051808303815f87803b1580156109fa575f5ffd5b505af1158015610a0c573d5f5f3e3d5ffd5b50505050505050565b5f5f8215610a285750600160f81b610a2b565b505f5b7f9e7b61f58c47dc699ac88507c4f5bb9f121c03808c5676a8078fe583e4649701546040516385362ee760e01b815260048101879052602481018690527fff00000000000000000000000000000000000000000000000000000000000000831660448201525f516020610e115f395f51905f52916001600160a01b0316906385362ee790606401610957565b5f6105cd82610ac6575f610ac9565b60015b60ff165f610be6565b5f805f516020610e115f395f51905f526001810154604051637702dcff60e01b81526004810188905260248101879052604481018690529192506001600160a01b031690637702dcff906064016020604051808303815f875af1158015610b3b573d5f5f3e3d5ffd5b505050506040513d601f19601f82011682018060405250810190610b5f9190610d70565b95945050505050565b6040805160018082528183019092525f516020610e115f395f51905f52915f91906020808301908036833701905050905082815f81518110610bac57610bac610da6565b60209081029190910101528154604051637d6e912360e11b81526001600160a01b039091169063fadd2246906109e3908490600401610dba565b7f9e7b61f58c47dc699ac88507c4f5bb9f121c03808c5676a8078fe583e464970154604051639cd07acb60e01b81525f915f516020610e115f395f51905f52916001600160a01b0390911690639cd07acb90610c489087908790600401610dfc565b6020604051808303815f875af1158015610c64573d5f5f3e3d5ffd5b505050506040513d601f19601f820116820180604052508101906108b19190610d70565b5f5f5f60408486031215610c9a575f5ffd5b83359250602084013567ffffffffffffffff811115610cb7575f5ffd5b8401601f81018613610cc7575f5ffd5b803567ffffffffffffffff811115610cdd575f5ffd5b866020828401011115610cee575f5ffd5b939660209190910195509293505050565b60548110610d1b57634e487b7160e01b5f52602160045260245ffd5b9052565b8481526001600160a01b0384166020820152608060408201525f8351806080840152806020860160a085015e5f60a0828501015260a0601f19601f830116840101915050610b5f6060830184610cff565b5f60208284031215610d80575f5ffd5b5051919050565b5f60208284031215610d97575f5ffd5b815180151581146106b4575f5ffd5b634e487b7160e01b5f52603260045260245ffd5b602080825282518282018190525f918401906040840190835b81811015610df1578351835260209384019390920191600101610dd3565b509095945050505050565b828152604081016106b46020830184610cff56fe9e7b61f58c47dc699ac88507c4f5bb9f121c03808c5676a8078fe583e4649700a164736f6c634300081b000a9e7b61f58c47dc699ac88507c4f5bb9f121c03808c5676a8078fe583e46497019e7b61f58c47dc699ac88507c4f5bb9f121c03808c5676a8078fe583e4649700",
  "linkReferences": {},
  "deployedLinkReferences": {}
}